{
  "transactions": [
    {
      "hash": "0x194d91c0cf95b0a2ea169d46265c8f7700b5e71467ae1a9329e5b1d550f1c2fe",
      "transactionType": "CALL",
      "contractName": null,
      "contractAddress": "0x3ef14fd26f0b7362ba63ab6e4a2e9dbb0e3b11ba",
      "function": "deployUniversityProxy(string,address)",
      "arguments": [
        "Kwame Nkrumah University of Science and Technology",
        "0x6912bC40f1446Dd8A2201F797f2c09dca3CeB88c"
      ],
      "transaction": {
        "from": "0x31eee44788ea5ae0c65dbdcb1d1c3ea1d8a4e592",
        "to": "0x3ef14fd26f0b7362ba63ab6e4a2e9dbb0e3b11ba",
        "gas": "0xb7c73",
        "value": "0x0",
        "input": "0x0545b16c00000000000000000000000000000000000000000000000000000000000000400000000000000000000000006912bc40f1446dd8a2201f797f2c09dca3ceb88c00000000000000000000000000000000000000000000000000000000000000324b77616d65204e6b72756d616820556e6976657273697479206f6620536369656e636520616e6420546563686e6f6c6f67790000000000000000000000000000",
        "nonce": "0x1e",
        "chainId": "0xaa36a7"
      },
      "additionalContracts": [
        {
          "transactionType": "CREATE",
          "contractName": "BeaconProxy",
          "address": "0x16871e66a5d517f9fb31c25c9591bc7672d30fc5",
          "initCode": "0x60a060405260405161055738038061055783398101604081905261002291610331565b61002c828261003e565b506001600160a01b0316608052610425565b610047826100fb565b6040516001600160a01b038316907f1cf3b03a6cf19fa2baba4df148e9dcabedea7f8a5c07840e207e5c089be95d3e905f90a28051156100ef576100ea826001600160a01b0316635c60da1b6040518163ffffffff1660e01b8152600401602060405180830381865afa1580156100c0573d5f803e3d5ffd5b505050506040513d601f19601f820116820180604052508101906100e49190610405565b82610209565b505050565b6100f76102aa565b5050565b806001600160a01b03163b5f0361013557604051631933b43b60e21b81526001600160a01b03821660048201526024015b60405180910390fd5b807fa3f0ad74e5423aebfd80d3ef4346578335a9a72aeaee59ff6cb3582b35133d5080546001600160a01b0319166001600160a01b0392831617905560408051635c60da1b60e01b815290515f92841691635c60da1b9160048083019260209291908290030181865afa1580156101ae573d5f803e3d5ffd5b505050506040513d601f19601f820116820180604052508101906101d29190610405565b9050806001600160a01b03163b5f036100f757604051634c9c8ce360e01b81526001600160a01b038216600482015260240161012c565b60605f61021684846102cb565b905080801561023757505f3d118061023757505f846001600160a01b03163b115b1561024c576102446102de565b9150506102a4565b801561027657604051639996b31560e01b81526001600160a01b038516600482015260240161012c565b3d15610289576102846102f7565b6102a2565b60405163d6bda27560e01b815260040160405180910390fd5b505b92915050565b34156102c95760405163b398979f60e01b815260040160405180910390fd5b565b5f805f835160208501865af49392505050565b6040513d81523d5f602083013e3d602001810160405290565b6040513d5f823e3d81fd5b80516001600160a01b0381168114610318575f80fd5b919050565b634e487b7160e01b5f52604160045260245ffd5b5f8060408385031215610342575f80fd5b61034b83610302565b602084810151919350906001600160401b0380821115610369575f80fd5b818601915086601f83011261037c575f80fd5b81518181111561038e5761038e61031d565b604051601f8201601f19908116603f011681019083821181831017156103b6576103b661031d565b8160405282815289868487010111156103cd575f80fd5b5f93505b828410156103ee57848401860151818501870152928501926103d1565b5f8684830101528096505050505050509250929050565b5f60208284031215610415575f80fd5b61041e82610302565b9392505050565b60805161011b61043c5f395f601d015261011b5ff3fe6080604052600a600c565b005b60186014601a565b609d565b565b5f7f00000000000000000000000000000000000000000000000000000000000000006001600160a01b0316635c60da1b6040518163ffffffff1660e01b8152600401602060405180830381865afa1580156076573d5f803e3d5ffd5b505050506040513d601f19601f820116820180604052508101906098919060ba565b905090565b365f80375f80365f845af43d5f803e80801560b6573d5ff35b3d5ffd5b5f6020828403121560c9575f80fd5b81516001600160a01b038116811460de575f80fd5b939250505056fea2646970667358221220bce1737b64415cd49aa213ad2dfe88dc0efc23081d5ab509cdecbe349718116f64736f6c6343000817003300000000000000000000000026cb3893ec1ad5702a458c264a6dbf94d0fe1581000000000000000000000000000000000000000000000000000000000000004000000000000000000000000000000000000000000000000000000000000000c4463fd1af00000000000000000000000000000000000000000000000000000000000000600000000000000000000000006912bc40f1446dd8a2201f797f2c09dca3ceb88c00000000000000000000000031eee44788ea5ae0c65dbdcb1d1c3ea1d8a4e59200000000000000000000000000000000000000000000000000000000000000324b77616d65204e6b72756d616820556e6976657273697479206f6620536369656e636520616e6420546563686e6f6c6f6779000000000000000000000000000000000000000000000000000000000000000000000000000000000000"
        }
      ],
      "isFixedGasLimit": false
    },
    {
      "hash": "0xaa1301d12e90edfe52f9d4a5e8bc541394cbb0f06224feebdd1004d1a0b553dd",
      "transactionType": "CALL",
      "contractName": null,
      "contractAddress": "0x3ef14fd26f0b7362ba63ab6e4a2e9dbb0e3b11ba",
      "function": "deployUniversityProxy(string,address)",
      "arguments": [
        "University of Ghana",
        "0x96353bB2369Ad3946Bc3E97434F916F451899762"
      ],
      "transaction": {
        "from": "0x31eee44788ea5ae0c65dbdcb1d1c3ea1d8a4e592",
        "to": "0x3ef14fd26f0b7362ba63ab6e4a2e9dbb0e3b11ba",
        "gas": "0x90370",
        "value": "0x0",
        "input": "0x0545b16c000000000000000000000000000000000000000000000000000000000000004000000000000000000000000096353bb2369ad3946bc3e97434f916f4518997620000000000000000000000000000000000000000000000000000000000000013556e6976657273697479206f66204768616e6100000000000000000000000000",
        "nonce": "0x1f",
        "chainId": "0xaa36a7"
      },
      "additionalContracts": [
        {
          "transactionType": "CREATE",
          "contractName": "BeaconProxy",
          "address": "0x431eb59fc7c7bc42d18f023b68fda3e1854669fc",
          "initCode": "0x60a060405260405161055738038061055783398101604081905261002291610331565b61002c828261003e565b506001600160a01b0316608052610425565b610047826100fb565b6040516001600160a01b038316907f1cf3b03a6cf19fa2baba4df148e9dcabedea7f8a5c07840e207e5c089be95d3e905f90a28051156100ef576100ea826001600160a01b0316635c60da1b6040518163ffffffff1660e01b8152600401602060405180830381865afa1580156100c0573d5f803e3d5ffd5b505050506040513d601f19601f820116820180604052508101906100e49190610405565b82610209565b505050565b6100f76102aa565b5050565b806001600160a01b03163b5f0361013557604051631933b43b60e21b81526001600160a01b03821660048201526024015b60405180910390fd5b807fa3f0ad74e5423aebfd80d3ef4346578335a9a72aeaee59ff6cb3582b35133d5080546001600160a01b0319166001600160a01b0392831617905560408051635c60da1b60e01b815290515f92841691635c60da1b9160048083019260209291908290030181865afa1580156101ae573d5f803e3d5ffd5b505050506040513d601f19601f820116820180604052508101906101d29190610405565b9050806001600160a01b03163b5f036100f757604051634c9c8ce360e01b81526001600160a01b038216600482015260240161012c565b60605f61021684846102cb565b905080801561023757505f3d118061023757505f846001600160a01b03163b115b1561024c576102446102de565b9150506102a4565b801561027657604051639996b31560e01b81526001600160a01b038516600482015260240161012c565b3d15610289576102846102f7565b6102a2565b60405163d6bda27560e01b815260040160405180910390fd5b505b92915050565b34156102c95760405163b398979f60e01b815260040160405180910390fd5b565b5f805f835160208501865af49392505050565b6040513d81523d5f602083013e3d602001810160405290565b6040513d5f823e3d81fd5b80516001600160a01b0381168114610318575f80fd5b919050565b634e487b7160e01b5f52604160045260245ffd5b5f8060408385031215610342575f80fd5b61034b83610302565b602084810151919350906001600160401b0380821115610369575f80fd5b818601915086601f83011261037c575f80fd5b81518181111561038e5761038e61031d565b604051601f8201601f19908116603f011681019083821181831017156103b6576103b661031d565b8160405282815289868487010111156103cd575f80fd5b5f93505b828410156103ee57848401860151818501870152928501926103d1565b5f8684830101528096505050505050509250929050565b5f60208284031215610415575f80fd5b61041e82610302565b9392505050565b60805161011b61043c5f395f601d015261011b5ff3fe6080604052600a600c565b005b60186014601a565b609d565b565b5f7f00000000000000000000000000000000000000000000000000000000000000006001600160a01b0316635c60da1b6040518163ffffffff1660e01b8152600401602060405180830381865afa1580156076573d5f803e3d5ffd5b505050506040513d601f19601f820116820180604052508101906098919060ba565b905090565b365f80375f80365f845af43d5f803e80801560b6573d5ff35b3d5ffd5b5f6020828403121560c9575f80fd5b81516001600160a01b038116811460de575f80fd5b939250505056fea2646970667358221220bce1737b64415cd49aa213ad2dfe88dc0efc23081d5ab509cdecbe349718116f64736f6c6343000817003300000000000000000000000026cb3893ec1ad5702a458c264a6dbf94d0fe1581000000000000000000000000000000000000000000000000000000000000004000000000000000000000000000000000000000000000000000000000000000a4463fd1af000000000000000000000000000000000000000000000000000000000000006000000000000000000000000096353bb2369ad3946bc3e97434f916f45189976200000000000000000000000031eee44788ea5ae0c65dbdcb1d1c3ea1d8a4e5920000000000000000000000000000000000000000000000000000000000000013556e6976657273697479206f66204768616e610000000000000000000000000000000000000000000000000000000000000000000000000000000000"
        }
      ],
      "isFixedGasLimit": false
    },
    {
      "hash": "0x68ea325ef2ed32c697b1e47f2414ae2ab7c7e3cc122f6e94e43bb760eb01bd21",
      "transactionType": "CALL",
      "contractName": null,
      "contractAddress": "0x3ef14fd26f0b7362ba63ab6e4a2e9dbb0e3b11ba",
      "function": "deployUniversityProxy(string,address)",
      "arguments": [
        "University of Cape Coast",
        "0xd673A8bEBDe8cCF133078eDf7B44005cC4f1DdcD"
      ],
      "transaction": {
        "from": "0x31eee44788ea5ae0c65dbdcb1d1c3ea1d8a4e592",
        "to": "0x3ef14fd26f0b7362ba63ab6e4a2e9dbb0e3b11ba",
        "gas": "0x903b2",
        "value": "0x0",
        "input": "0x0545b16c0000000000000000000000000000000000000000000000000000000000000040000000000000000000000000d673a8bebde8ccf133078edf7b44005cc4f1ddcd0000000000000000000000000000000000000000000000000000000000000018556e6976657273697479206f66204361706520436f6173740000000000000000",
        "nonce": "0x20",
        "chainId": "0xaa36a7"
      },
      "additionalContracts": [
        {
          "transactionType": "CREATE",
          "contractName": "BeaconProxy",
          "address": "0x2448f12c6958d02a6060a47835253af05ed31f91",
          "initCode": "0x60a060405260405161055738038061055783398101604081905261002291610331565b61002c828261003e565b506001600160a01b0316608052610425565b610047826100fb565b6040516001600160a01b038316907f1cf3b03a6cf19fa2baba4df148e9dcabedea7f8a5c07840e207e5c089be95d3e905f90a28051156100ef576100ea826001600160a01b0316635c60da1b6040518163ffffffff1660e01b8152600401602060405180830381865afa1580156100c0573d5f803e3d5ffd5b505050506040513d601f19601f820116820180604052508101906100e49190610405565b82610209565b505050565b6100f76102aa565b5050565b806001600160a01b03163b5f0361013557604051631933b43b60e21b81526001600160a01b03821660048201526024015b60405180910390fd5b807fa3f0ad74e5423aebfd80d3ef4346578335a9a72aeaee59ff6cb3582b35133d5080546001600160a01b0319166001600160a01b0392831617905560408051635c60da1b60e01b815290515f92841691635c60da1b9160048083019260209291908290030181865afa1580156101ae573d5f803e3d5ffd5b505050506040513d601f19601f820116820180604052508101906101d29190610405565b9050806001600160a01b03163b5f036100f757604051634c9c8ce360e01b81526001600160a01b038216600482015260240161012c565b60605f61021684846102cb565b905080801561023757505f3d118061023757505f846001600160a01b03163b115b1561024c576102446102de565b9150506102a4565b801561027657604051639996b31560e01b81526001600160a01b038516600482015260240161012c565b3d15610289576102846102f7565b6102a2565b60405163d6bda27560e01b815260040160405180910390fd5b505b92915050565b34156102c95760405163b398979f60e01b815260040160405180910390fd5b565b5f805f835160208501865af49392505050565b6040513d81523d5f602083013e3d602001810160405290565b6040513d5f823e3d81fd5b80516001600160a01b0381168114610318575f80fd5b919050565b634e487b7160e01b5f52604160045260245ffd5b5f8060408385031215610342575f80fd5b61034b83610302565b602084810151919350906001600160401b0380821115610369575f80fd5b818601915086601f83011261037c575f80fd5b81518181111561038e5761038e61031d565b604051601f8201601f19908116603f011681019083821181831017156103b6576103b661031d565b8160405282815289868487010111156103cd575f80fd5b5f93505b828410156103ee57848401860151818501870152928501926103d1565b5f8684830101528096505050505050509250929050565b5f60208284031215610415575f80fd5b61041e82610302565b9392505050565b60805161011b61043c5f395f601d015261011b5ff3fe6080604052600a600c565b005b60186014601a565b609d565b565b5f7f00000000000000000000000000000000000000000000000000000000000000006001600160a01b0316635c60da1b6040518163ffffffff1660e01b8152600401602060405180830381865afa1580156076573d5f803e3d5ffd5b505050506040513d601f19601f820116820180604052508101906098919060ba565b905090565b365f80375f80365f845af43d5f803e80801560b6573d5ff35b3d5ffd5b5f6020828403121560c9575f80fd5b81516001600160a01b038116811460de575f80fd5b939250505056fea2646970667358221220bce1737b64415cd49aa213ad2dfe88dc0efc23081d5ab509cdecbe349718116f64736f6c6343000817003300000000000000000000000026cb3893ec1ad5702a458c264a6dbf94d0fe1581000000000000000000000000000000000000000000000000000000000000004000000000000000000000000000000000000000000000000000000000000000a4463fd1af0000000000000000000000000000000000000000000000000000000000000060000000000000000000000000d673a8bebde8ccf133078edf7b44005cc4f1ddcd00000000000000000000000031eee44788ea5ae0c65dbdcb1d1c3ea1d8a4e5920000000000000000000000000000000000000000000000000000000000000018556e6976657273697479206f66204361706520436f617374000000000000000000000000000000000000000000000000000000000000000000000000"
        }
      ],
      "isFixedGasLimit": false
    }
  ],
  "receipts": [
    {
      "status": "0x1",
      "cumulativeGasUsed": "0x622288",
      "logs": [
        {
          "address": "0x16871e66a5d517f9fb31c25c9591bc7672d30fc5",
          "topics": [
            "0x1cf3b03a6cf19fa2baba4df148e9dcabedea7f8a5c07840e207e5c089be95d3e",
            "0x00000000000000000000000026cb3893ec1ad5702a458c264a6dbf94d0fe1581"
          ],
          "data": "0x",
          "blockHash": "0x6f35655d94c22cca79e9539fd1767838eb6df32d98c6999ff79b72b257dd8bfb",
          "blockNumber": "0x9a97ae",
          "blockTimestamp": "0x69781a10",
          "transactionHash": "0x194d91c0cf95b0a2ea169d46265c8f7700b5e71467ae1a9329e5b1d550f1c2fe",
          "transactionIndex": "0x2f",
          "logIndex": "0x62",
          "removed": false
        },
        {
          "address": "0x16871e66a5d517f9fb31c25c9591bc7672d30fc5",
          "topics": [
            "0xc7f505b2f371ae2175ee4913f4499e1f2633a7b5936321eed1cdaeb6115181d2"
          ],
          "data": "0x0000000000000000000000000000000000000000000000000000000000000001",
          "blockHash": "0x6f35655d94c22cca79e9539fd1767838eb6df32d98c6999ff79b72b257dd8bfb",
          "blockNumber": "0x9a97ae",
          "blockTimestamp": "0x69781a10",
          "transactionHash": "0x194d91c0cf95b0a2ea169d46265c8f7700b5e71467ae1a9329e5b1d550f1c2fe",
          "transactionIndex": "0x2f",
          "logIndex": "0x63",
          "removed": false
        },
        {
          "address": "0x3ef14fd26f0b7362ba63ab6e4a2e9dbb0e3b11ba",
          "topics": [
            "0x761199446f82b5721b0308e5fce3b33408cf80f91d15c36a137bbd039b9769cd",
            "0x0000000000000000000000000000000000000000000000000000000000000000",
            "0x00000000000000000000000016871e66a5d517f9fb31c25c9591bc7672d30fc5",
            "0x0000000000000000000000006912bc40f1446dd8a2201f797f2c09dca3ceb88c"
          ],
          "data": "0x00000000000000000000000000000000000000000000000000000000000000400000000000000000000000000000000000000000000000000000000069781a1000000000000000000000000000000000000000000000000000000000000000324b77616d65204e6b72756d616820556e6976657273697479206f6620536369656e636520616e6420546563686e6f6c6f67790000000000000000000000000000",
          "blockHash": "0x6f35655d94c22cca79e9539fd1767838eb6df32d98c6999ff79b72b257dd8bfb",
          "blockNumber": "0x9a97ae",
          "blockTimestamp": "0x69781a10",
          "transactionHash": "0x194d91c0cf95b0a2ea169d46265c8f7700b5e71467ae1a9329e5b1d550f1c2fe",
          "transactionIndex": "0x2f",
          "logIndex": "0x64",
          "removed": false
        }
      ],
      "logsBloom": "0x40000000000000000000000000000000000000000000000000000000000000000000000000000000000000000000000400000000000000000000000000000000000000000000000000000020001004000000000000003000000000000000100000000000021000000000000000000800000000000000000000800000002000000000000000000000000800000000080000000000000080000001000000000000000000004000040001000000000000000000000000000000040000000000000000000000000000000000000000000000200000000004000000800001000020000000000000000008000000000000000000000000000000000000000000000000",
      "type": "0x2",
      "transactionHash": "0x194d91c0cf95b0a2ea169d46265c8f7700b5e71467ae1a9329e5b1d550f1c2fe",
      "transactionIndex": "0x2f",
      "blockHash": "0x6f35655d94c22cca79e9539fd1767838eb6df32d98c6999ff79b72b257dd8bfb",
      "blockNumber": "0x9a97ae",
      "gasUsed": "0x7da91",
      "effectiveGasPrice": "0x3dc1d5a3",
      "from": "0x31eee44788ea5ae0c65dbdcb1d1c3ea1d8a4e592",
      "to": "0x3ef14fd26f0b7362ba63ab6e4a2e9dbb0e3b11ba",
      "contractAddress": null
    },
    {
      "status": "0x1",
      "cumulativeGasUsed": "0x68a914",
      "logs": [
        {
          "address": "0x431eb59fc7c7bc42d18f023b68fda3e1854669fc",
          "topics": [
            "0x1cf3b03a6cf19fa2baba4df148e9dcabedea7f8a5c07840e207e5c089be95d3e",
            "0x00000000000000000000000026cb3893ec1ad5702a458c264a6dbf94d0fe1581"
          ],
          "data": "0x",
          "blockHash": "0x6f35655d94c22cca79e9539fd1767838eb6df32d98c6999ff79b72b257dd8bfb",
          "blockNumber": "0x9a97ae",
          "blockTimestamp": "0x69781a10",
          "transactionHash": "0xaa1301d12e90edfe52f9d4a5e8bc541394cbb0f06224feebdd1004d1a0b553dd",
          "transactionIndex": "0x30",
          "logIndex": "0x65",
          "removed": false
        },
        {
          "address": "0x431eb59fc7c7bc42d18f023b68fda3e1854669fc",
          "topics": [
            "0xc7f505b2f371ae2175ee4913f4499e1f2633a7b5936321eed1cdaeb6115181d2"
          ],
          "data": "0x0000000000000000000000000000000000000000000000000000000000000001",
          "blockHash": "0x6f35655d94c22cca79e9539fd1767838eb6df32d98c6999ff79b72b257dd8bfb",
          "blockNumber": "0x9a97ae",
          "blockTimestamp": "0x69781a10",
          "transactionHash": "0xaa1301d12e90edfe52f9d4a5e8bc541394cbb0f06224feebdd1004d1a0b553dd",
          "transactionIndex": "0x30",
          "logIndex": "0x66",
          "removed": false
        },
        {
          "address": "0x3ef14fd26f0b7362ba63ab6e4a2e9dbb0e3b11ba",
          "topics": [
            "0x761199446f82b5721b0308e5fce3b33408cf80f91d15c36a137bbd039b9769cd",
            "0x0000000000000000000000000000000000000000000000000000000000000001",
            "0x000000000000000000000000431eb59fc7c7bc42d18f023b68fda3e1854669fc",
            "0x00000000000000000000000096353bb2369ad3946bc3e97434f916f451899762"
          ],
          "data": "0x00000000000000000000000000000000000000000000000000000000000000400000000000000000000000000000000000000000000000000000000069781a100000000000000000000000000000000000000000000000000000000000000013556e6976657273697479206f66204768616e6100000000000000000000000000",
          "blockHash": "0x6f35655d94c22cca79e9539fd1767838eb6df32d98c6999ff79b72b257dd8bfb",
          "blockNumber": "0x9a97ae",
          "blockTimestamp": "0x69781a10",
          "transactionHash": "0xaa1301d12e90edfe52f9d4a5e8bc541394cbb0f06224feebdd1004d1a0b553dd",
          "transactionIndex": "0x30",
          "logIndex": "0x67",
          "removed": false
        }
      ],
      "logsBloom": "0x40000200000000000000000000000000000000000000000000000020000000000000000000000000000000000000000000000000000000000000000000040000000000000000000000000000005000000000000001043000000000000000000000000000001000000000000000000000080000000000000800000040002000000000000000000000000800000000080000000000000080000001000000000000000000004000000000000000000000000000000004000000040000000000000000080000000000000000000000000000000000000004000000800001000040000000000000000000000000000000000000000000000000000000000000000000",
      "type": "0x2",
      "transactionHash": "0xaa1301d12e90edfe52f9d4a5e8bc541394cbb0f06224feebdd1004d1a0b553dd",
      "transactionIndex": "0x30",
      "blockHash": "0x6f35655d94c22cca79e9539fd1767838eb6df32d98c6999ff79b72b257dd8bfb",
      "blockNumber": "0x9a97ae",
      "gasUsed": "0x6868c",
      "effectiveGasPrice": "0x3dc1d5a3",
      "from": "0x31eee44788ea5ae0c65dbdcb1d1c3ea1d8a4e592",
      "to": "0x3ef14fd26f0b7362ba63ab6e4a2e9dbb0e3b11ba",
      "contractAddress": null
    },
    {
      "status": "0x1",
      "cumulativeGasUsed": "0x6f2fd0",
      "logs": [
        {
          "address": "0x2448f12c6958d02a6060a47835253af05ed31f91",
          "topics": [
            "0x1cf3b03a6cf19fa2baba4df148e9dcabedea7f8a5c07840e207e5c089be95d3e",
            "0x00000000000000000000000026cb3893ec1ad5702a458c264a6dbf94d0fe1581"
          ],
          "data": "0x",
          "blockHash": "0x6f35655d94c22cca79e9539fd1767838eb6df32d98c6999ff79b72b257dd8bfb",
          "blockNumber": "0x9a97ae",
          "blockTimestamp": "0x69781a10",
          "transactionHash": "0x68ea325ef2ed32c697b1e47f2414ae2ab7c7e3cc122f6e94e43bb760eb01bd21",
          "transactionIndex": "0x31",
          "logIndex": "0x68",
          "removed": false
        },
        {
          "address": "0x2448f12c6958d02a6060a47835253af05ed31f91",
          "topics": [
            "0xc7f505b2f371ae2175ee4913f4499e1f2633a7b5936321eed1cdaeb6115181d2"
          ],
          "data": "0x0000000000000000000000000000000000000000000000000000000000000001",
          "blockHash": "0x6f35655d94c22cca79e9539fd1767838eb6df32d98c6999ff79b72b257dd8bfb",
          "blockNumber": "0x9a97ae",
          "blockTimestamp": "0x69781a10",
          "transactionHash": "0x68ea325ef2ed32c697b1e47f2414ae2ab7c7e3cc122f6e94e43bb760eb01bd21",
          "transactionIndex": "0x31",
          "logIndex": "0x69",
          "removed": false
        },
        {
          "address": "0x3ef14fd26f0b7362ba63ab6e4a2e9dbb0e3b11ba",
          "topics": [
            "0x761199446f82b5721b0308e5fce3b33408cf80f91d15c36a137bbd039b9769cd",
            "0x0000000000000000000000000000000000000000000000000000000000000002",
            "0x0000000000000000000000002448f12c6958d02a6060a47835253af05ed31f91",
            "0x000000000000000000000000d673a8bebde8ccf133078edf7b44005cc4f1ddcd"
          ],
          "data": "0x00000000000000000000000000000000000000000000000000000000000000400000000000000000000000000000000000000000000000000000000069781a100000000000000000000000000000000000000000000000000000000000000018556e6976657273697479206f66204361706520436f6173740000000000000000",
          "blockHash": "0x6f35655d94c22cca79e9539fd1767838eb6df32d98c6999ff79b72b257dd8bfb",
          "blockNumber": "0x9a97ae",
          "blockTimestamp": "0x69781a10",
          "transactionHash": "0x68ea325ef2ed32c697b1e47f2414ae2ab7c7e3cc122f6e94e43bb760eb01bd21",
          "transactionIndex": "0x31",
          "logIndex": "0x6a",
          "removed": false
        }
      ],
      "logsBloom": "0x44000000000000000000000000000000000000000000000000000000000000000000000000000000000000000000000000000000000000000000000000000000000000000000000000000080001000000000000000003000000000000000000000000000001000000000000001000000000000000000000000000000102000000000000000000000000800000000090000010000000080000101020000000000000000004000000000000100000000000000000000000000040000000000000000000000000000000020000000000000000000000004000000800001000000000000000000000000000000000000000000000000008000000000000000000000",
      "type": "0x2",
      "transactionHash": "0x68ea325ef2ed32c697b1e47f2414ae2ab7c7e3cc122f6e94e43bb760eb01bd21",
      "transactionIndex": "0x31",
      "blockHash": "0x6f35655d94c22cca79e9539fd1767838eb6df32d98c6999ff79b72b257dd8bfb",
      "blockNumber": "0x9a97ae",
      "gasUsed": "0x686bc",
      "effectiveGasPrice": "0x3dc1d5a3",
      "from": "0x31eee44788ea5ae0c65dbdcb1d1c3ea1d8a4e592",
      "to": "0x3ef14fd26f0b7362ba63ab6e4a2e9dbb0e3b11ba",
      "contractAddress": null
    }
  ],
  "libraries": [],
  "pending": [],
  "returns": {},
  "timestamp": 1769478673581,
  "chain": 11155111,
  "commit": "0001085"
}